:0800000026C0FECFFDCFFCCFAE
:10000800FBCFFACFF9CFF8CFF7CFF6CFF5CF47C070
:10001800F3CF60C073C0F0CFEFCFEECFEDCF102796
:10002800E80364000A00010000100001100001004C
:100038000000000000000000010002003800060077
:1000480004003A000000F894EE27ECBBF1E0FBBF97
:10005800EBBFE5BF8DE0A2E0BB27ED938A95E9F7FA
:1000680080E094E0A0E6ED930197E9F7E0E4F0E0A2
:1000780085919591009761F0A591B591059015909E
:10008800BF01F00105900D920197E1F7FB01F0CF58
:10009800EFE5EDBFE4E0EEBFC0E6D1E032C090D0BE
:1000A800A4D01BB10CB1E12FEC7189F4E52D539468
:1000B800F0E0E05AFE4F0083E0E4E51509F455242A
:1000C8007394E0E4E71519F47724689420F809910B
:1000D80019910FC075D0882061F08A94E92D939406
:1000E800F0E0E056FE4FE081ECB9E0E4E91509F4F0
:1000F8009924E991EFBFF991E9911895A4B0B5B0A9
:100108001895E6E0E7BBE0E0E8BBE4BBE5BBE0EA66
:10011800E1BBE0E0E2BBE3BFE2BFEFBDEEBDEDBD9A
:10012800ECBDE7BDE6BDEBBDEABDE9BDE8BDE2BD9E
:10013800E5BDE4BDE3BDE9BFE5BFEBB9E8EDEAB96C
:10014800E6E8E0BDE0E0E0BDE7E0E9B9E0E8E8B90D
:10015800E0E4E7B9EEE8E6B9E0E0E0BFEDB9E6BF14
:100168007894C19AA4EFB1E036D0C198A4EFB1E079
:1001780032D0C29A979AA0E9B1E027D0A0E9B1E0BD
:1001880027D0ACE2B1E021D0ACE2B1E021D0A8ECBC
:10019800B0E01BD0A8ECB0E01BD0A4E6B0E015D0CE
:1001A800A4E6B0E015D0A2E3B0E00FD0A2E3B0E03F
:1001B80012D0B09902C0979A01C09798FACFFFCF92
:1001C800EA93FA93EFB7EA93089505D097980895BC
:1001D80002D0979A0895109639F086E69EE0019726
:1001E800F1F7A8951197C9F708951A930A930895F6
:00000001FF
